:0400000069EF00F0B4
:100008005A82FACF46F0FBCF47F0D9CF48F0DACF83
:1000180049F0F3CF4AF0F4CF4BF00E01C2BBCAABA4
:1000280003D002EC19F043D0C2B9CAA903D0AEEC90
:1000380019F03DD0F2AC3BD0C5B3CDA303D037EC1B
:100048001BF035D0C5B1CDA103D07BEC11F02FD07A
:10005800C5B9CDA90BD001D82AD00500FA6E010187
:10006800D651FD6ED751FE6ED8510DD0C5BBCDAB64
:100078000DD001D81CD00500FA6E0101D351FD6ED8
:10008800D451FE6ED551FF6EFA501200C6B7CEA7F6
:1000980003D09AEC19F00BD0C6B5CEA503D0B5ECB9
:1000A80018F005D0C6B1CEA102D0CFEC18F04BC0E5
:1000B800F4FF4AC0F3FF49C0DAFF48C0D9FF47C080
:0E00C800FBFF46C0FAFF5A921100E8EF16F057
:100F0000002D2D2D0058414D000062EC18F0F28E9E
:100F1000F28C010E0001606F000E21EC18F0000E43
:100F20000001606F010E21EC18F0000EB1EC1AF018
:100F3000000E0001A26F000EA16F000EA46F000E44
:100F4000A36FCEEC1AF066EC14F0F3EC19F0010E7E
:100F5000A7EC1AF0050E0001A66F0F0EA56FF10E9B
:100F6000E82EFED7A52FFCD7A62FFAD7000E00013A
:100F7000A26F050EA16FFF0EA46FFB0EA36FCEEC48
:100F80001AF0000E0001BB6F000EBC6F000EBD6FAB
:100F9000000EBE6F010EB1EC1AF0000E0001D46F0E
:100FA000000ED36F000ECC6F000ECB6F000ECE6F15
:100FB000000ECD6F290E0001BF6F5C0EC06F0F0ECB
:100FC000C16FBD0EC26F420EC36F600EC46F650E5F
:100FD000C56F3C0EC66F000EC76F000EC86F000EC7
:100FE000C96F000ECA6F1E0E86EC19F060C0B9F012
:100FF00061C0BAF01D0E86EC19F060C0CFF061C080
:10100000D0F01F0E86EC19F060C0D1F061C0D2F0B4
:101010000001CF51D15DA56FD051D259A66FCF0E2F
:10102000A55DFF0EA659D8A012D0CF51D15DA56FF6
:10103000D051D259A66FA6510AE1320EA55DD8B0A3
:1010400006D0200EB95D030EBA59D8A006D0CF51F4
:10105000D15DD36FD051D259D46FC3C072F0C4C028
:1010600073F0C5C074F0C6C075F0CB51D35DA56FE9
:10107000CC51D459A66FA5C060F0A6C061F0000E97
:1010800061BFFF0E626F636F010EA2EC12F060C0D1
:101090006EF061C06FF062C070F063C071F0C8ECB8
:1010A00009F06EC08BF06FC08CF070C08DF071C015
:1010B0008EF0BFC072F0C0C073F0C1C074F0C2C087
:1010C00075F0D3C060F0D4C061F00001000E61BFC4
:1010D000FF0E626F636F010EA2EC12F060C06EF043
:1010E00061C06FF062C070F063C071F0C8EC09F0CD
:1010F0006EC087F06FC088F070C089F071C08AF050
:101100001BEC0DF087C0A9F088C0AAF089C0ABF035
:101110008AC0ACF0C7C072F0C8C073F0C9C074F028
:10112000CAC075F0CDC060F0CEC061F00001000E05
:1011300061BFFF0E626F636F010EA2EC12F060C020
:101140006EF061C06FF062C070F063C071F0C8EC07
:1011500009F06EC08BF06FC08CF070C08DF071C064
:101160008EF0A9C087F0AAC088F0ABC089F0ACC0EF
:101170008AF01BEC0DF087C0ADF088C0AEF089C0DE
:10118000AFF08AC0B0F0C3C072F0C4C073F0C5C085
:1011900074F0C6C075F00001CB51D35DA56FCC5182
:1011A000D459A66FA5C060F0A6C061F0000E61BF63
:1011B000FF0E626F636F010EA2EC12F060C06EF062
:1011C00061C06FF062C070F063C071F0C8EC09F0EC
:1011D0006EC08BF06FC08CF070C08DF071C08EF05F
:1011E000BFC072F0C0C073F0C1C074F0C2C075F06F
:1011F000D3C060F0D4C061F00001000E61BFFF0EEB
:10120000626F636F010EA2EC12F060C06EF061C0FD
:101210006FF062C070F063C071F0C8EC09F06EC08E
:1012200087F06FC088F070C089F071C08AF01BEC45
:101230000DF087C0B1F088C0B2F089C0B3F08AC0A9
:10124000B4F0C7C072F0C8C073F0C9C074F0CAC0AF
:1012500075F0CDC060F0CEC061F00001000E61BF3E
:10126000FF0E626F636F010EA2EC12F060C06EF0B1
:1012700061C06FF062C070F063C071F0C8EC09F03B
:101280006EC08BF06FC08CF070C08DF071C08EF0AE
:10129000B1C087F0B2C088F0B3C089F0B4C08AF0A2
:1012A0001BEC0DF087C0B5F088C0B6F089C0B7F070
:1012B0008AC0B8F0000E00018B6F000E8C6FA00E7C
:1012C0008D6F410E8E6FADC087F0AEC088F0AFC09D
:1012D00089F0B0C08AF01BEC0DF087C097F088C091
:1012E00098F089C099F08AC09AF047EC15F097C041
:1012F000A1F098C0A2F0000E00018B6F000E8C6F61
:10130000200E8D6FC10E8E6FB5C087F0B6C088F00D
:10131000B7C089F0B8C08AF01BEC0DF087C097F019
:1013200088C098F089C099F08AC09AF047EC15F00F
:1013300097C0A3F098C0A4F0CEEC1AF0C5EC1AF058
:101340000001BB51605DA56FBC516159A66FBD51D5
:101350006259A76FBE516359A86FA851A711A61172
:1013600004E10B0EA55DD8A025D6D351CD27D451CD
:10137000CE23D3C0CBF0D4C0CCF0C5EC1AF060C003
:10138000BBF061C0BCF062C0BDF063C0BEF012D65D
:1013900000017151800B7A6F71517125806F70BFA0
:1013A00080818051D8B40DD08029D8A408D0000EF7
:1013B0006E6F000E6F6F000E706F000E716F708F8A
:1013C00008D0000E6E6F000E6F6F000E706F000E73
:1013D000716F7551800B7A1B755175257F6F74BFC6
:1013E0007F817F51D8B40DD07F29D8A408D0000EBA
:1013F000726F000E736F000E746F000E756F748F36
:1014000008D0000E726F000E736F000E746F000E26
:10141000756F7F51D8B403D08051D8A409D0000E85
:101420006E6F000E6F6F000E706F000E716F120006
:1014300074516E03F3CF85F0F4CF86F085517B6F46
:101440007C6B7D6B7E6B8651816F826B836B846B53
:1014500073516F03F3CF85F0F4CF86F085517B276E
:10146000000E7C237D237E2386518127000E82235C
:101470008323842372517003F3CF85F0F4CF86F079
:1014800085517B27000E7C237D237E238651812777
:10149000000E8223832384237DC07EF07CC07DF0F8
:1014A0007BC07CF07B6B72516F03F3CF85F0F4CF80
:1014B00086F085517B2786517C23000E7D23000E0C
:1014C0007E2373516E03F3CF85F0F4CF86F0855100
:1014D0007B2786517C23000E7D23000E7E237DC05A
:1014E0007EF07CC07DF07BC07CF07B6B72516E0324
:1014F000F3CF85F0F4CF86F085517B2786517C238E
:10150000000E7D23000E7E2374516F03F3CF85F010
:10151000F4CF86F08551812786518223000E8323E4
:10152000000E842373517003F3CF85F0F4CF86F05F
:101530008551812786518223000E8323000E842348
:1015400074517003F3CF85F0F4CF86F08551766F38
:101550008651776F786B796B78C079F077C078F0C7
:1015600076C077F0766B7651812777518223785158
:101570008323795184237BC076F07CC077F07DC0D3
:1015800078F07EC079F0190E05D0D8907933783391
:1015900077337633E82EF9D7765181277751822336
:1015A00078518323795184237DC07EF07CC07DF007
:1015B0007BC07CF07B6B7F5180C076F0776B7627A9
:1015C000000E7723820E7625856FFF0E7721866FBA
:1015D0000FD0D89081378237833784377EBF81819F
:1015E000D8907B377C377D377E378507D8A0860734
:1015F00083AFEFD7000E7F6F7EAF17D0FF0E7B1546
:10160000766FFF0E7C15776FFF0E7D15786F7F0E5E
:101610007E15796F7651771178117911D8B403D08E
:10162000010E7F6F02D081B1FBD77F51D8B41FD09C
:10163000010E8127000E82238323842384A117D0E7
:1016400081C076F082C077F083C078F084C079F0F2
:101650007935793378337733763376C081F077C054
:1016600082F078C083F079C084F0854B862B86BFEA
:101670000DD0865103E18529D8A008D0000E816FD6
:10168000000E826F800E836F7F0E20D086BF05D044
:1016900086510EE18505D8B00BD0000E816F000E8B
:1016A000826F000E836F000E846F000E7A6F0FD072
:1016B00085C080F0FF0E8117FF0E82177F0E831703
:1016C000000E841780B1838FD8908031846F7A5157
:1016D000841381C06EF082C06FF083C070F084C04C
:1016E00071F012001250800B1B6E12501224216EEA
:1016F00011BE21802150D8B40DD02128D8A408D003
:10170000000E0F6E000E106E000E116E000E126EA7
:10171000118E08D0000E0F6E000E106E000E116EAE
:10172000000E126E1650800B1B1A16501624206ED7
:1017300015BE20802050D8B40DD02028D8A408D0C1
:10174000000E136E000E146E000E156E000E166E57
:10175000158E08D0000E136E000E146E000E156E5E
:10176000000E166E2050D8B403D02150D8A409D052
:10177000000E0F6E000E106E000E116E000E126E37
:10178000120015500F02F3CF26F0F4CF27F02650A9
:101790001C6E1D6A1E6A1F6A2750226E236A246A05
:1017A000256A14501002F3CF26F0F4CF27F026500C
:1017B0001C26000E1D221E221F2227502226000E4C
:1017C00023222422252213501102F3CF26F0F4CF36
:1017D00027F026501C26000E1D221E221F222750F5
:1017E0002226000E2322242225221EC01FF01DC007
:1017F0001EF01CC01DF01C6A13501002F3CF26F01F
:10180000F4CF27F026501C2627501D22000E1E2242
:10181000000E1F2214500F02F3CF26F0F4CF27F052
:1018200026501C2627501D22000E1E22000E1F22AD
:101830001EC01FF01DC01EF01CC01DF01C6A1350FE
:101840000F02F3CF26F0F4CF27F026501C262750A6
:101850001D22000E1E22000E1F2215501002F3CF73
:1018600026F0F4CF27F02650222627502322000E00
:101870002422000E252214501102F3CF26F0F4CFBB
:1018800027F02650222627502322000E2422000E65
:10189000252215501102F3CF26F0F4CF27F0265061
:1018A000176E2750186E196A1A6A19C01AF018C0F4
:1018B00019F017C018F0176A175022261850232263
:1018C000195024221A5025221CC017F01DC018F0F0
:1018D0001EC019F01FC01AF0190E05D0D8901A3288
:1018E000193218321732E82EF9D71750222618501D
:1018F0002322195024221A5025221EC01FF01DC079
:101900001EF01CC01DF01C6A205021C017F0186A80
:101910001726000E1822820E1724266EFF0E18209E
:10192000276E0FD0D89022362336243625361FBE98
:101930002280D8901C361D361E361F362606D8A0AB
:10194000270624AEEFD7000E206E1FAE17D0FF0E75
:101950001C14176EFF0E1D14186EFF0E1E14196E48
:101960007F0E1F141A6E1750181019101A10D8B4C1
:1019700003D0010E206E02D022B0FBD72050D8B485
:101980001FD0010E2226000E23222422252225A06C
:1019900017D022C017F023C018F024C019F025C0BA
:1019A0001AF01A341A3219321832173217C022F0CC
:1019B00018C023F019C024F01AC025F0264A272A9F
:1019C00027BE0DD0275003E12628D8A008D0000E4E
:1019D000226E000E236E800E246E7F0E20D027BE56
:1019E00005D027500EE12604D8B00BD0000E226E91
:1019F000000E236E000E246E000E256E000E1B6E70
:101A00000FD026C021F0FF0E2216FF0E23167F0EE8
:101A10002416000E251621B0248ED8902130256E74
:101A20001B50251222C00FF023C010F024C011F06B
:101A300025C012F0120000018A51800B936F8A5169
:101A40008A25956F89BF95819551D8B40DD0952978
:101A5000D8A408D0000E876F000E886F000E896F23
:101A6000000E8A6F898F06D0000E876F000E886F78
:101A7000000E896F000E8A6F8E51800B946F935108
:101A80009419D8A4938D8E518E25946F8DBF948117
:101A90009451D8B40DD09429D8A408D0000E8B6FDF
:101AA000000E8C6F000E8D6F000E8E6F8D8F06D026
:101AB000000E8B6F000E8C6F000E8D6F000E8E6F00
:101AC0009551945DD8B022D093AD02D0800E931B77
:101AD00095C096F094C095F096C094F087C096F0AB
:101AE0008BC087F096C08BF088C096F08CC088F0D1
:101AF00096C08CF089C096F08DC089F096C08DF0AC
:101B00008AC096F08EC08AF096C08EF0000E966F56
:101B1000955194C08FF0906B8F5F000E905B90BFDB
:101B20002CD0905104E11A0E8F5DD8A026D0875199
:101B3000881189118A11D8B402D0010E01D0000E8B
:101B4000966F000E876F000E886F000E896F000E73
:101B50008A6F94C095F015D096A105D0D890963193
:101B60000109966F02D0D890963387B1968F8A3547
:101B70008A33893388338733952B9451955DD8A068
:101B8000EBD793BD28D09551D8A409D0000E876F0C
:101B9000000E886F000E896F000E8A6F12008B5145
:101BA00087278C5188238D5189238E518A238AA1BE
:101BB00071D096A105D0D89096310109966F02D0C8
:101BC000D890963387B1968F8A358A338933883394
:101BD0008733952B5FD08B51875D8C5188598D5100
:101BE00089598A51800A8F6F8E51800A8F59D8B0D7
:101BF00025D087518B5D8F6F88518C59906F89519B
:101C00008D59916F8A518E59926FFF0E8F25876F74
:101C1000FF0E9021886FFF0E9121896FFF0E922198
:101C20008A6F800E931B966D9651D8A40FD0010E2B
:101C30008727000E882389238A2308D08B51875F4A
:101C40008C51885B8D51895B8E518A5B87518811DD
:101C500089118A11D8A41CD09651D8A419D0000E8D
:101C6000876F000E886F000E896F000E8A6F12005A
:101C7000D8908737883789378A3796BF878196A16A
:101C800002D0D88001D0D89096379551D8A4950726
:101C900089AFEED7000E946F96AF0BD096C08FF041
:101CA0007F0E8F17D8B403D0010E946F02D087B186
:101CB000FBD79451D8B420D0010E8727000E88237B
:101CC00089238A238AA118D087C08FF088C090F01A
:101CD00089C091F08AC092F092359233913390335B
:101CE0008F338FC087F090C088F091C089F092C088
:101CF0008AF09529D8A4952B9529D8B403D095516D
:101D0000D8A40DD0000E876F000E886F000E896F6B
:101D1000000E8A6F9551D8A402D0000E936F95A142
:101D200002D0898F01D0899FD89095318A6F93BF57
:101D30008A8F87C087F088C088F089C089F08AC000
:101D40008AF012002B50800B346E2B502B24366EF1
:101D50002ABE36803650D8B40DD03628D8A408D044
:101D6000000E286E000E296E000E2A6E000E2B6EDD
:101D70002A8E06D0000E286E000E296E000E2A6EE6
:101D8000000E2B6E2F50800B356E34503518D8A4B2
:101D9000348C2F502F24356E2EBE35803550D8B45C
:101DA0000DD03528D8A408D0000E2C6E000E2D6E54
:101DB000000E2E6E000E2F6E2E8E06D0000E2C6E94
:101DC000000E2D6E000E2E6E000E2F6E3650355CFE
:101DD000D8B022D034AC02D0800E341A36C037F0DE
:101DE00035C036F037C035F028C037F02CC028F0A9
:101DF00037C02CF029C037F02DC029F037C02DF0A6
:101E00002AC037F02EC02AF037C02EF02BC037F092
:101E10002FC02BF037C02FF0000E376E365035C074
:101E200030F0316A305E000E315A31BE2CD0315064
:101E300004E11A0E305CD8A026D0285029102A10B0
:101E40002B10D8B402D0010E01D0000E376E000E58
:101E5000286E000E296E000E2A6E000E2B6E35C005
:101E600036F015D037A005D0D89037300109376E3D
:101E700002D0D890373228B0378E2B342B322A320A
:101E800029322832362A3550365CD8A0EBD734BCFC
:101E900028D03650D8A409D0000E286E000E296E26
:101EA000000E2A6E000E2B6E12002C5028262D508C
:101EB00029222E502A222F502B222BA071D037A05E
:101EC00005D0D89037300109376E02D0D89037321C
:101ED00028B0378E2B342B322A3229322832362A38
:101EE0005FD02C50285C2D5029582E502A582B504A
:101EF000800A306E2F50800A3058D8B025D0285034
:101F00002C5C306E29502D58316E2A502E58326E6E
:101F10002B502F58336EFF0E3024286EFF0E3120C9
:101F2000296EFF0E32202A6EFF0E33202B6E800E9C
:101F3000341A376C3750D8A40FD0010E2826000E63
:101F400029222A222B2208D02C50285E2D50295AD3
:101F50002E502A5A2F502B5A285029102A102B1055
:101F6000D8A41CD03750D8A419D0000E286E000E6B
:101F7000296E000E2A6E000E2B6E1200D8902836A5
:101F800029362A362B3637BE288037A002D0D88093
:101F900001D0D89037363650D8A436062AAEEED7C0
:101FA000000E356E37AE0BD037C030F07F0E3016D6
:101FB000D8B403D0010E356E02D028B0FBD735500F
:101FC000D8B420D0010E2826000E29222A222B2246
:101FD0002BA018D028C030F029C031F02AC032F030
:101FE0002BC033F03334333232323132303230C0FE
:101FF00028F031C029F032C02AF033C02BF0362847
:10200000D8A4362A3628D8B403D03650D8A40DD058
:10201000000E286E000E296E000E2A6E000E2B6E2A
:102020003650D8A402D0000E346E36A002D02A8ECC
:1020300001D02A9ED89036302B6E34BE2B8E28C00D
:1020400028F029C029F02AC02AF02BC02BF012005A
:102050000001F651EA5DE66FF751EB59E76F9A0E12
:10206000136E990E146EA10E156E410E166EE6C01B
:1020700001F0E7C002F0000E02BEFF0E036E046E18
:10208000010E44EC13F001C00FF002C010F003C0C9
:1020900011F004C012F072EC0BF00FC02CF010C065
:1020A0002DF011C02EF012C02FF0FDC001F0FEC0C7
:1020B00002F0000E02BEFF0E036E046E010E44EC31
:1020C00013F001C028F002C029F003C02AF004C0B8
:1020D0002BF0A2EC0EF028C042F029C043F02AC039
:1020E00044F02BC045F0660E136E660E146E9E0E05
:1020F000156EC10E166EE4C001F0E5C002F0000ED0
:1021000002BEFF0E036E046E010E44EC13F001C01C
:102110000FF002C010F003C011F004C012F072EC16
:102120000BF00FC02CF010C02DF011C02EF012C01B
:102130002FF042C028F043C029F044C02AF045C027
:102140002BF0A2EC0EF028C038F029C039F02AC0DC
:102150003AF02BC03BF0A5EC15F038C04EF039C07A
:102160004FF0E6C0E4F0E7C0E5F04FBE0AD0210E24
:102170004E5C030E4F58D8A004D0030E4F6E200EB5
:1021800005D04FAE04D0000E4F6E000E4E6E4EC006
:10219000FDF04FC0FEF00001F451E85DE26FF55133
:1021A000E959E36F9A0E136E990E146EA10E156E17
:1021B000410E166EE2C001F0E3C002F0000E02BE56
:1021C000FF0E036E046E010E44EC13F001C00FF01D
:1021D00002C010F003C011F004C012F072EC0BF05A
:1021E0000FC02CF010C02DF011C02EF012C02FF037
:1021F000DCC101F0DDC102F0000E02BEFF0E036E75
:10220000046E010E44EC13F001C028F002C029F066
:1022100003C02AF004C02BF0A2EC0EF028C042F05C
:1022200029C043F02AC044F02BC045F0660E136E5F
:10223000660E146E9E0E156EC10E166EE0C001F095
:10224000E1C002F0000E02BEFF0E036E046E010E2E
:1022500044EC13F001C00FF002C010F003C011F005
:1022600004C012F072EC0BF00FC02CF010C02DF077
:1022700011C02EF012C02FF042C028F043C029F048
:1022800044C02AF045C02BF0A2EC0EF028C038F074
:1022900029C039F02AC03AF02BC03BF0A5EC15F06C
:1022A00038C04CF039C04DF0E2C0E0F0E3C0E1F0DE
:1022B0004DBE0AD0210E4C5C030E4D58D8A004D060
:1022C000030E4D6E200E05D04DAE04D0000E4D6EA7
:1022D000000E4C6E4CC0DCF14DC0DDF14EC001F083
:1022E0004FC002F0C0EC19F04CC001F04DC002F03C
:1022F000D1EC19F012000E01CD9196AEF9D0969E58
:10230000000E576E000120EE03F0F051D926F15176
:10231000DA22DECF04F0DDCF05F004C0D9FF05C01E
:10232000DAFF010EDF6E000EF06F000EF16F12008B
:102330000001D9B31200D7C0F0F0D8C0F1F0D7C077
:10234000D9FFD8C0DAFFDF50566E20EE01F0D7512A
:10235000D926D851DA22DECFF2F0DDCFF3F0050E28
:10236000D727000ED823B20ED71908E1010ED819CD
:10237000D8A404D0AD0ED76F010ED86FD991D55126
:10238000D71904E1D651D819D8B4D9839780020E51
:10239000576E120097AC06D00001DB2B040E42EC06
:1023A00018F01200D8905930056E5830046E045061
:1023B000926E58A003D00B0E576E1200030E576E8C
:1023C000120097AC06D00001DB2B040E42EC18F093
:1023D0001200978258C004F059C005F005C004F0FF
:1023E000056A060E0416000E0516F00E0410586E4F
:1023F0000550596E5880010E546EC9D75404D8B494
:102400001BD0F2C0D9FFF3C0DAFFDECF58F0DDCF2A
:1024100059F0000120EE03F0F251D926F351DA22EF
:10242000DECFEEF0DDCFEFF020EE02F0F251D92654
:10243000F351DA22DF50556E58C092FF58A0BED734
:10244000050E576E120097AC07D00001DB2B979C4E
:10245000050E42EC18F0120055065528D8A40DD0F0
:10246000050E0001F227000EF323562E04D0000EB5
:1024700042EC18F0120097828AD7EEC0D9FFEFC065
:10248000DAFFDF50926E0001EE4BEF2B120097AC9B
:1024900007D00001DB2B040E42EC18F0979C1200D1
:1024A0009786080E576E1200080E576E9786120018
:1024B000EEC0D9FFEFC0DAFF92CFDFFF0001EE4B95
:1024C000EF2B010E555ED8B404D0979A060E576EC6
:1024D00003D0978A78EC1AF097881200000E42EC2D
:1024E00018F012000001DB2B060E42EC18F012006F
:1024F0005750046E056A0550000AD8A4F3D704505B
:10250000000AD8B415D7010AD8B4B5D7030AD8B48D
:1025100075D7010AD8B497D7070AD8B4DFD7010A0C
:10252000D8B4B5D7030AD8B4BFD7010AD8B4D6D720
:102530000F0AD8B4BDD7020AD8B42CD7010AD8B430
:1025400040D7D0D70001686F00016851D8A463AFAD
:102550001AD060C064F061C065F062C066F063C00C
:1025600067F0641F651F661F671F642B000E6523DD
:102570006623672364C06AF065C06BF066C06CF0C8
:1025800067C06DF008D060C06AF061C06BF062C0D7
:102590006CF063C06DF06051611162116311D8A4D9
:1025A00009D0000E606F000E616F000E626F000EAA
:1025B000636F1200960E696F06D0692BD8906D3349
:1025C0006C336B336A33000E6A15646F000E6B1543
:1025D000656F000E6C15666FFE0E6D15676F6451AA
:1025E000651166116711D8B40DD0E7D7692B010EBC
:1025F0006A27000E6B236C236D23D8906D336C33E8
:102600006B336A33000E6A15646F000E6B15656FCD
:10261000000E6C15666FFF0E6D15676F64516511C6
:1026200066116711D8B407D0E1D76907D8906A3727
:102630006B376C376D376CBF03D0020E6961F5D70D
:1026400069A16C9FD890693369C064F0656B666B53
:10265000676B64C067F0666B656B646B64516A138B
:1026600065516B1366516C1367516D136851D8A493
:1026700063AF01D06D8F6AC060F06BC061F06CC059
:1026800062F06DC063F01200096E0950D8A404AE68
:102690001AD001C005F002C006F003C007F004C064
:1026A00008F0051E061E071E081E052A000E06223B
:1026B0000722082205C00BF006C00CF007C00DF081
:1026C00008C00EF008D001C00BF002C00CF003C02F
:1026D0000DF004C00EF00150021003100410D8A435
:1026E00009D0000E016E000E026E000E036E000E89
:1026F000046E1200960E0A6E06D00A2AD8900E3288
:102700000D320C320B32000E0B14056E000E0C1441
:10271000066E000E0D14076EFE0E0E14086E0550A8
:10272000061007100810D8B40DD0E7D70A2A010EFA
:102730000B26000E0C220D220E22D8900E320D32E6
:102740000C320B32000E0B14056E000E0C14066ECC
:10275000000E0D14076EFF0E0E14086E05500610C5
:1027600007100810D8B407D0E1D70A06D8900B3666
:102770000C360D360E360DBE03D0020E0A60F5D7AC
:102780000AA00D9ED8900A320AC005F0066A076AB0
:10279000086A05C008F0076A066A056A05500B1248
:1027A00006500C1207500D1208500E120950D8A4F2
:1027B00004AE01D00E8E0BC001F00CC002F00DC0B3
:1027C00003F00EC004F01200000E876E000E866E3D
:1027D000000E836E000E846E000E856E020E8C6EEF
:1027E000E00E886EC70E896E990E8A6EE30E8B6EB0
:1027F0001C0E0F01266F660E216FF80E196F050E65
:102800002E6F1F0E116F060E256F000E2D6F000E1E
:10281000186FC00E106F000E206F000E2C6F000E90
:102820000F6F000E176F000E1F6F000E246F0E69E2
:1028300016691E692369070E2B6F0D6915691D69DD
:1028400022690F0E2A6F0A9B0A9D0A9F0B8B0B8D24
:102850000B8F0C9B0C8D0C9F1A911B811C91860E6B
:102860000001606F2E0E616F000E626F08EC1BF0AE
:10287000B60E0001606F2F0E616F000E626F01ECEB
:102880001BF0960E0001606F360E616F000E626FD6
:10289000FAEC1AF0360E0001606F2E0E616F000E1A
:1028A000626FF3EC1AF00E01C289130EB76F170EA8
:1028B000B56F0F0EFA6F060EF86F100EFB6F050E58
:1028C000F96F090EFD6F140EB86F1200839083929A
:1028D000040E0001666F400E656F260EE82EFED7CF
:1028E000652FFCD7662FFAD700F0030E9EEC16F08A
:1028F000680E0001656FE40EE82EFED7652FFCD749
:1029000000F0030E9EEC16F0680E0001656FE40EF9
:10291000E82EFED7652FFCD700F0030E9EEC16F0D4
:10292000680E0001656FE40EE82EFED7652FFCD718
:1029300000F0020E9EEC16F0680E0001656FE40ECA
:10294000E82EFED7652FFCD700F0000E0001626F65
:10295000280E7FEC18F0680E0001656FE40EE82E7B
:10296000FED7652FFCD700F0000E0001626F0C0E41
:102970007FEC18F0A70E0001656F3A0EE82EFED727
:10298000652FFCD700F0F3EC19F0680E0001656FBD
:10299000E40EE82EFED7652FFCD700F0000E0001F4
:1029A000626F060E7FEC18F0680E0001656FE40E92
:1029B000E82EFED7652FFCD700F0F3EC19F08380EA
:1029C0001200000E126E10AE0AD0101E0F1E0E1E48
:1029D0000D6C000E0E220F221022010E126E0CAE94
:1029E0000AD00C1E0B1E0A1E096C000E0A220B22B6
:1029F0000C22010E121A000E136E000E146E000E41
:102A0000156E000E166E0D500E100F101010D8B46B
:102A10002AD0010E116E06D0D8900D360E360F3624
:102A20001036112A10AEF8D7D89013361436153652
:102A300016360D50095C0E500A580F500B581050A6
:102A40000C58D8A009D00D50095E0E500A5A0F50EC
:102A50000B5A10500C5A1380D89010320F320E328D
:102A60000D32112EE1D71250D8B408D0161E151E03
:102A7000141E136C000E14221522162213C009F026
:102A800014C00AF015C00BF016C00CF012000001C3
:102A900099359A35A06FA051D8A409D0000E976F30
:102AA000000E986F000E996F000E9A6F120097C07B
:102AB0009BF098C09CF099C09DF09AC09EF0200EAB
:102AC00005D0D8909E339D339C339B33E82EF9D7A5
:102AD0009B519F6F998FFF0E9717FF0E9817FF0E50
:102AE0009917000E9A17960EA05FA0AF0DD0A051B7
:102AF000800A970FD8A0D2D7D8909A3399339833B9
:102B00009733A03FF9D70DD01F0EA06507D0C6D7C9
:102B1000D8909737983799379A37A007A051D8A4FB
:102B2000F7D79F51D8B408D09A1F991F981F976D57
:102B3000000E982399239A2397C097F098C098F095
:102B400099C099F09AC09AF012003A343B34416E21
:102B50004150D8A409D0000E386E000E396E000E18
:102B60003A6E000E3B6E120038C03CF039C03DF0AA
:102B70003AC03EF03BC03FF0200E05D0D8903F3227
:102B80003E323D323C32E82EF9D73C50406E3A8E10
:102B9000FF0E3816FF0E3916FF0E3A16000E3B16C2
:102BA000960E415E41AE0DD04150800A970FD8A0DD
:102BB000D2D7D8903B323A3239323832413EF9D707
:102BC0000DD01F0E416407D0C6D7D890383639369D
:102BD0003A363B3641064150D8A4F7D74050D8B4D6
:102BE00008D03B1E3A1E391E386C000E39223A229C
:102BF0003B2238C038F039C039F03AC03AF03BC017
:102C00003BF01200000E0001F925D96EDA6A010EC0
:102C1000DA22DF6A9DA414D0000EF925D96EDA6A93
:102C2000010EDA220101DF8201D80AD00500FA6E16
:102C3000C151FD6EC251FE6EC351FF6EFA501200BB
:102C40009DA215D0000E0001F925D96EDA6A010E99
:102C5000DA220101DF8401D80AD00500FA6EBE51E4
:102C6000FD6EBF51FE6EC051FF6EFA501200000E95
:102C70000001F925D96EDA6A010EDA22DF50D8B4E4
:102C80000DD001D812000500FA6E0101BB51FD6E96
:102C9000BC51FE6EBD51FF6EFA501200E2EC19F00D
:102CA00012000E01C59B040E0001606F2C0E616FB7
:102CB000000E626F16EC1BF00E01C599360E000176
:102CC000606F320E616F000E626F0FEC1BF0080E2A
:102CD0009F6E900E9D6E240E9E6E8A0E9B6E000E51
:102CE0009C6E980E0001606F360E616F000E626F71
:102CF00024EC1BF0740E0001606F360E616F000E45
:102D0000626F1DEC1BF07A0E0001606F360E616F72
:102D1000000E626F2BEC1BF0000E0001F86F000E2E
:102D2000FC6F000EFB6F080EFA6F000EF96F000EBD
:102D3000536E000E526E0E01C58B12000001616FC2
:102D4000000161A103D0606B602B02D00001606BB9
:102D50006047604783506019FB0B6019836E61A365
:102D600003D0606B602B02D00001606B604760474E
:102D7000604783506019F70B6019836E61A503D01B
:102D8000606B602B02D00001606B603B8350601968
:102D9000EF0B6019836E61A703D0606B602B02D0CC
:102DA0000001606B87506019FE0B6019876E83828B
:102DB000E40E00D000D0E82EFCD700D000D08392E3
:102DC000E40E00D000D0E82EFCD700D000D01200D6
:102DD000640EF66E360EF76E000EF86E01EED9F048
:102DE00010EE09F00900F5CFEEFFE550E150FAE1F1
:102DF000940EF66E360EF76E000EF86E0900F5CFE3
:102E0000FDF00900F5CFFEF001EE00F0B20EEE6A23
:102E1000E806FDE100EED5F0280EEE6AE806FDE1D9
:102E200000EE4CF00E0EEE6AE806FDE15A905A9262
:102E3000000185EF07F042EC1BF0D80E096E530E2F
:102E40000A6E010E0B6E000E0C6E03EC1AF001C040
:102E50000DF002C00EF00F6A106AE1EC14F009C028
:102E6000F4F00AC0F5F090A005D00001F46DF51F54
:102E7000D8B0F52B000E026E000E016E5CEC1AF05D
:102E800044EC1BF0120046EC1BF0D80E096E530EFA
:102E90000A6E010E0B6E000E0C6E13EC1AF001C0E0
:102EA0000DF002C00EF00F6A106AE1EC14F009C0D8
:102EB000F6F00AC0F7F091B205D00001F66DF71FE9
:102EC000D8B0F72B000E026E000E016E6AEC1AF0FD
:102ED00048EC1BF01200000E6A6E000E6B6E000EC6
:102EE0006C6E000E6D6E000E686E000E696E000E48
:102EF000666E000E0F015F6F000E5D6F000E596F62
:102F0000000E5A6F000E5B6F000E656E000E586F5C
:102F1000000E566F330E576F840E606E000E5C6F9E
:102F20001200000ECA6E000ECB6E010ECC6E000EAB
:102F3000C86E000EC76EC750C8CF63F00001646B47
:102F400063C064F0636B6311DC6F6451DD6F0E016D
:102F5000CE95C685800E0001606F340E616F000E45
:102F6000626FDEEC1AF0300EC96E1200000ED06EE9
:102F7000000ED16E010ED26E000ECE6E000ECD6E22
:102F8000CD50CECF63F00001646B63C064F0636B1F
:102F90006311DE6F6451DF6F0E01CE91C6819C0E0E
:102FA0000001606F340E616F000E626FE5EC1AF085
:102FB000300ECF6E12003F0E016E550EE82EFED77A
:102FC000012EFCD700F08DBC0BD090A204D00101E3
:102FD0002C4B2D2B08D001012C07D8A02D0703D096
:102FE00090B2F9D7F4D7070E026E170E016E6A0E73
:102FF000E82EFED7012EFCD7022EFAD700D0120001
:10300000400ED66EC10ED46E800ED36ED350D4CF88
:1030100063F00001646B63C064F0636B6311EC6F79
:103020006451ED6F0E01CA9BC28B760E0001606F7A
:10303000350E616F000E626FECEC1AF0900ED56EDB
:1030400012000001636F0ED06051D8B402D08688A0
:103050001200869812006051D8B402D08684120003
:103060008694120000016351616F626B6251000A25
:10307000D8A412006151000AD8B4E6D7010AD8A436
:103080001200E9D7036E9784000120EE03F0F0519F
:10309000D926F151DA22DE50DE10D8B410D020EE5D
:1030A00003F0F051D926F151DA22DECF01F0DDCF65
:1030B00002F001C0D9FF02C0DAFF03C0DFFF000E3B
:1030C000576E120040EC1BF032EC1AF0E4EC13F0F7
:1030D00085EC1AF09AEC18F091EC1AF06BEC17F002
:1030E000E9EC18F023EC1AF000EC18F09CEC1AF064
:1030F00091EC17F0B6EC17F051EC16F0120000014D
:10310000636F00016251D8A402D0839001D0838004
:10311000E40E00D000D0E82EFCD700D000D0000193
:1031200063390F0B9EEC16F0000163510F0B9EEC00
:1031300016F01200AD0E0001D76F010ED86FAD0E64
:10314000D56F010ED66FD983D991000EDB6F000EBB
:10315000956E280E966E000E986E270E936E0E01D9
:10316000CD91CD93C581C58312000E01CE95DCC0F3
:1031700001F0DDC002F05CEC1AF00101B251B311B4
:10318000B411D8B4120001D812000500FA6EB25181
:10319000FD6EB351FE6EB451FF6EFA5012000E0177
:1031A000CE91DEC001F0DFC002F06AEC1AF001013E
:1031B000B551B611B711D8B4120001D812000500EC
:1031C000FA6EB551FD6EB651FE6EB751FF6EFA50F4
:1031D0001200040EB96E000EB86E000EBA6E4D0EDF
:1031E000B66E000EB56E0E01CE97C687500E00016A
:1031F000606F200E616F000E626FD7EC1AF0A00EA8
:10320000B76E12000E01CA9B0001ED51D46EECC0E6
:10321000D3FF0101C451C511C611D8B4120001D8A1
:1032200012000500FA6EC451FD6EC551FE6EC65106
:10323000FF6EFA501200080E0001FA6110D0100E55
:10324000FB25D96EDA6A010EDA22DF509A6EFB2B6B
:10325000070EFB6502D0000EFB6FFA2B12000E0169
:10326000C59912000101C751C811C911D8B40CD0B9
:1032700001D80AD00500FA6EC751FD6EC851FE6E26
:10328000C951FF6EFA5012000F011A91120001018C
:10329000CA51CB11CC11D8B40CD001D80AD005003A
:1032A000FA6ECA51FD6ECB51FE6ECC51FF6EFA50D4
:1032B00012000F010A9F12000101CD51CE11CF1152
:1032C000D8B40CD001D80AD00500FA6ECD51FD6EED
:1032D000CE51FE6ECF51FF6EFA5012000F010A9DC3
:1032E00012000101D051D111D211D8B40CD001D8A3
:1032F0000AD00500FA6ED051FD6ED151FE6ED2514A
:10330000FF6EFA5012000F010A9B12000001646F59
:1033100064C05FFF608E609C608060B0FED76450C8
:103320000001636F626B63506225606F000E632162
:10333000616F12000E01CE970101B851B911BA1197
:10334000D8B4120001D812000500FA6EB851FD6E13
:10335000B951FE6EBA51FF6EFA5012000F010ABB4E
:1033600071EC19F00F010ABD5CEC19F00F010ABFF6
:1033700047EC19F00F011AA1120032EC19F01200FB
:10338000FF0E0116030E0216A8A806D0060ED8904E
:1033900001360236E82EFBD70250A76E01C0A6FF09
:1033A0001200FF0E0116030E0216ACA806D0060E80
:1033B000D89001360236E82EFBD70250AB6E01C022
:1033C000AAFF1200080E0001F925D96EDA6A010E73
:1033D000DA2299CFDFFFF92B070EF96502D0000E34
:1033E000F96F522A1200000E0001626F010E7FEC8D
:1033F00018F02A0E0001646F8D0EE82EFED7642FA0
:10340000FCD700D01200C982C7CF08F0C8CF07F0A0
:103410000750036E0850056E03C006F005C001F0AA
:1034200006C002F01200CF82CDCF08F0CECF07F059
:103430000750036E0850056E03C006F005C001F08A
:1034400006C002F01200010EBF6E000EBE6E000E2E
:10345000C06EC70EBC6E000EBB6E0E01CE93A00EEA
:10346000BD6E1200000E0E01E16F000EE26F000E45
:10347000E36F000EE46F000EE56F000EE66F1200C2
:1034800042EC1BF0000E0001F56F000EF46F000E11
:10349000026E000E016E5CEC1AF0120046EC1BF09E
:1034A000000E0001F76F000EF66F000E026E000EA8
:1034B000016E6AEC1AF01200C9A407D0C99002503C
:1034C000C86E01C0C7FFC98012000250C86E01C09B
:1034D000C7FF1200CFA407D0CF900250CE6E01C01C
:1034E000CDFFCF8012000250CE6E01C0CDFF120082
:1034F000050E0001F227000EF323562E03D0040E12
:10350000576E1200010E576E1200600E0E01D86F3A
:10351000000EDA6F000EDC6F080EDE6F000EDD6F3E
:1035200012008C0EA86E010EA76E8F0EA66EAE5006
:10353000F30B0409AE6E12008C0EAC6E010EAB6E76
:103540008F0EAA6EAE50FC0B0109AE6E1200000188
:10355000606F00016051D8B402D087841200879454
:1035600012000001606F00016051D8B402D086865D
:10357000120086961200504A512A010E0101282796
:10358000000E29232A232B23120028C160F029C111
:1035900061F02AC162F02BC163F01200A1C0EAF011
:1035A000A2C0EBF0A3C0E8F0A4C0E9F0120060C034
:1035B000B8F161C0B9F162C0BAF1120060C0B2F1F5
:1035C00061C0B3F162C0B4F1120060C0B5F161C076
:1035D000B6F162C0B7F1120060C0C4F161C0C5F1BC
:1035E00062C0C6F1120060C0C7F161C0C8F162C01C
:1035F000C9F1120060C0CAF161C0CBF162C0CCF168
:10360000120060C0CDF161C0CEF162C0CFF11200F6
:1036100060C0D0F161C0D1F162C0D2F1120060C0CF
:10362000D6F161C0D7F162C0D8F1120060C0D3F109
:1036300061C0D4F162C0D5F1120060C0BEF161C0BA
:10364000BFF162C0C0F1120060C0C1F161C0C2F13F
:1036500062C0C3F1120060C0BBF161C0BCF162C0C6
:0D366000BDF11200292A2B9001900190016C
:10366E000E01CD9312009D989D881200E2EC19F088
:10367E001200F29A1200C9901200C9801200CF9067
:0C368E001200CF80120090011200120008
:020000040020DA
:10000000FF0FFF0FFF0FFF0FFF0FFF0FFF0FFF0F80
:020000040030CA
:0C0000008CFFFFFF9FFFFFDFFFFFFFFFF3
:00000001FF
