:0400000069EF00F0B4
:100008005B82FACF46F0FBCF47F0D9CF48F0DACF82
:1000180049F0F3CF4AF0F4CF4BF00E01C2BBCAABA4
:1000280003D0B9EC1BF043D0C2B9CAA903D065EC20
:100038001CF03DD0F2AC3BD0C5B3CDA303D0FEEC51
:100048001DF035D0C5B1CDA103D010EC14F02FD0E0
:10005800C5B9CDA90BD001D82AD00500FA6E010187
:100068007351FD6E7451FE6E75510DD0C5BBCDAB8D
:100078000DD001D81CD00500FA6E01017051FD6E3B
:100088007151FE6E7251FF6EFA501200C6B7CEA7BC
:1000980003D051EC1CF00BD0C6B5CEA503D06CEC48
:1000A8001BF005D0C6B1CEA102D086EC1BF04BC028
:1000B800F4FF4AC0F3FF49C0DAFF48C0D9FF47C080
:0E00C800FBFF46C0FAFF5B9211007DEF19F0BE
:100F0000002D2D2D0058414D000019EC1BF0F28EE4
:100F1000F28C010E0001606F000ED8EC1AF0000E8A
:100F20000001606F010ED8EC1AF0000E73EC1DF09A
:100F3000000E0001A26F000EA16F000EA46F000E44
:100F4000A36F9AEC1DF0FBEC16F0AAEC1CF0010E5E
:100F500069EC1DF0050E0001A66F0F0EA56FF10ED6
:100F6000E82EFED7A52FFCD7A62FFAD7000E00013A
:100F7000A26F050EA16FFF0EA46FFB0EA36F9AEC7C
:100F80001DF0000E0001CC6F000ECD6F000ECE6F75
:100F9000000ECF6F010E73EC1DF0000E0001EA6F22
:100FA000000EE96F000EDF6F000EDE6F000EE16FC6
:100FB000000EE06F000EB66F000EB76F000EBA6F36
:100FC000000EBB6F000EE66F21EE76F010EEA9F07A
:100FD0000A0EDBCFE3FFE806FCE2000EB96F000E5D
:100FE000B86F5C0E0001D26F8F0ED36F420ED46FBC
:100FF000BD0ED56FBC0ED66F740ED76F930ED86F23
:10100000BC0ED96F000EDA6F000EDB6F000EDC6FC6
:10101000000EDD6F000EB56F0A0EB46F1E0E3DECB4
:101020001CF060C0E2F061C0E3F01D0E3DEC1CF06E
:1010300060C0E4F061C0E5F01F0E3DEC1CF060C044
:10104000E7F061C0E8F0000EAAEC19F00001D06FE3
:10105000010EAAEC19F00001D16FD051D8B403D021
:10106000BB51D8B4B62BD151D8B403D0BA51D8B4EF
:10107000B72BD1C0BAF0D0C0BBF0D051D8B41AD081
:10108000D151D8B417D0E651D8A414D0A90EB825A0
:10109000D96E000EB921DA6EDF50E66FB84BB92B6E
:1010A00091EC1DF060C0CCF061C0CDF062C0CEF01C
:1010B00063C0CFF00001E451E75DA56FE551E85949
:1010C000A66FCF0EA55DFF0EA659D8A012D0E45191
:1010D000E75DA56FE551E859A66FA6510AE1320E0A
:1010E000A55DD8B006D0200EE25D030EE359D8A06E
:1010F0002AD0E451E75DE551E859D8B013D0E4C0F7
:10110000A5F0E5C0A6F0D890A537A637A551E75DB4
:10111000A76FA651E859A86FE251A725E96FE351DF
:10112000A82110D0E7C0A5F0E8C0A6F0D890A53758
:10113000A637E751A55FE851A65BE251A55DE96FCF
:10114000E351A659EA6FE651D8A472D1D6C072F025
:10115000D7C073F0D8C074F0D9C075F0DE51E95D26
:10116000A56FDF51EA59A66FA5C060F0A6C061F077
:10117000000E61BFFF0E626F636F010E37EC15F05A
:1011800060C06EF061C06FF062C070F063C071F05B
:101190005DEC0CF06EC08BF06FC08CF070C08DF009
:1011A00071C08EF0D2C072F0D3C073F0D4C074F0AE
:1011B000D5C075F0E9C060F0EAC061F00001000E32
:1011C00061BFFF0E626F636F010E37EC15F060C0F8
:1011D0006EF061C06FF062C070F063C071F05DECE2
:1011E0000CF06EC087F06FC088F070C089F071C0DD
:1011F0008AF0B0EC0FF087C0BCF088C0BDF089C0A9
:10120000BEF08AC0BFF0DAC072F0DBC073F0DCC0A1
:1012100074F0DDC075F0E0C060F0E1C061F0000185
:10122000000E61BFFF0E626F636F010E37EC15F0A9
:1012300060C06EF061C06FF062C070F063C071F0AA
:101240005DEC0CF06EC08BF06FC08CF070C08DF058
:1012500071C08EF0BCC087F0BDC088F0BEC089F000
:10126000BFC08AF0B0EC0FF087C0C0F088C0C1F0FA
:1012700089C0C2F08AC0C3F0D6C072F0D7C073F084
:10128000D8C074F0D9C075F00001DE51E95DA56FDA
:10129000DF51EA59A66FA5C060F0A6C061F0000E4C
:1012A00061BFFF0E626F636F010E37EC15F060C017
:1012B0006EF061C06FF062C070F063C071F05DEC01
:1012C0000CF06EC08BF06FC08CF070C08DF071C0F0
:1012D0008EF0D2C072F0D3C073F0D4C074F0D5C019
:1012E00075F0E9C060F0EAC061F00001000E61BF76
:1012F000FF0E626F636F010E37EC15F060C06EF089
:1013000061C06FF062C070F063C071F05DEC0CF012
:101310006EC087F06FC088F070C089F071C08AF02D
:10132000B0EC0FF087C0C4F088C0C5F089C0C6F02B
:101330008AC0C7F0DAC072F0DBC073F0DCC074F0B2
:10134000DDC075F0E0C060F0E1C061F00001000EAA
:1013500061BFFF0E626F636F010E37EC15F060C066
:101360006EF061C06FF062C070F063C071F05DEC50
:101370000CF06EC08BF06FC08CF070C08DF071C03F
:101380008EF0C4C087F0C5C088F0C6C089F0C7C061
:101390008AF0B0EC0FF087C0C8F088C0C9F089C0EF
:1013A000CAF08AC0CBF0000E00018B6F000E8C6F6C
:1013B000A00E8D6F410E8E6FC0C087F0C1C088F047
:1013C000C2C089F0C3C08AF0B0EC0FF087C097F0BC
:1013D00088C098F089C099F08AC09AF0DCEC17F0C8
:1013E00097C0A1F098C0A2F0000E00018B6F000E14
:1013F0008C6F200E8D6FC10E8E6FC8C087F0C9C074
:1014000088F0CAC089F0CBC08AF0B0EC0FF087C07A
:1014100097F088C098F089C099F08AC09AF0DCEC07
:1014200017F097C0A3F098C0A4F09AEC1DF0D9D59E
:10143000E605D8A446D0000EA26F0A0EA16F000EDA
:10144000A46F0A0EA36F9AEC1DF091EC1DF0000141
:10145000CC51605DA56FCD516159A66FCE516259D7
:10146000A76FCF516359A86FA851A711A61104E126
:10147000C90EA55DD8A0B5D5EABF06D0EA5103E1F3
:101480000A0EE95DD8B0ADD5EAAF06D0F70EE95D3A
:10149000FF0EEA59D8A0A5D52C0EE25D010EE35946
:1014A000D8B00CD02C0EE75D010EE859D8B006D0AC
:1014B0002C0EE45D010EE559D8A093D5000EE66F21
:1014C00090D5020EE619D8A444D0FF0EA26FF60EF6
:1014D000A16FFF0EA46FF60EA36F9AEC1DF091ECB6
:1014E0001DF00001CC51605DA56FCD516159A66F13
:1014F000CE516259A76FCF516359A86FA851A71158
:10150000A61104E1C90EA55DD8A06BD5EABF06D02F
:10151000EA5103E10A0EE95DD8B063D5EAAF06D01F
:10152000F70EE95DFF0EEA59D8A05BD52C0EE25DFF
:10153000010EE359D8B0C2D72C0EE75D010EE85971
:10154000D8B0BCD72C0EE45D010EE559D8B0B6D7A3
:1015500048D5030EE619D8A424D0000E73EC1DF074
:10156000010E7DEC1DF0150E0001A66F4B0EA56F50
:10157000BE0EE82EFED7A52FFCD7A62FFAD700F077
:10158000000E7DEC1DF0150E0001A66F4B0EA56F31
:10159000BE0EE82EFED7A52FFCD7A62FFAD700F057
:1015A00020D5040EE619D8A41CD5D6C072F0D7C039
:1015B00073F0D8C074F0D9C075F0DE51E95DA56F45
:1015C000DF51EA59A66FA5C060F0A6C061F0000E19
:1015D00061BFFF0E626F636F010E37EC15F060C0E4
:1015E0006EF061C06FF062C070F063C071F05DECCE
:1015F0000CF06EC08BF06FC08CF070C08DF071C0BD
:101600008EF0D2C072F0D3C073F0D4C074F0D5C0E5
:1016100075F0E9C060F0EAC061F00001000E61BF42
:10162000FF0E626F636F010E37EC15F060C06EF055
:1016300061C06FF062C070F063C071F05DEC0CF0DF
:101640006EC087F06FC088F070C089F071C08AF0FA
:10165000B0EC0FF087C0BCF088C0BDF089C0BEF010
:101660008AC0BFF0DAC072F0DBC073F0DCC074F087
:10167000DDC075F0E0C060F0E1C061F00001000E77
:1016800061BFFF0E626F636F010E37EC15F060C033
:101690006EF061C06FF062C070F063C071F05DEC1D
:1016A0000CF06EC08BF06FC08CF070C08DF071C00C
:1016B0008EF0BCC087F0BDC088F0BEC089F0BFC04E
:1016C0008AF0B0EC0FF087C0C0F088C0C1F089C0CC
:1016D000C2F08AC0C3F0D6C072F0D7C073F0D8C0D1
:1016E00074F0D9C075F00001DE51E95DA56FDF51DE
:1016F000EA59A66FA5C060F0A6C061F0000E61BFF8
:10170000FF0E626F636F010E37EC15F060C06EF074
:1017100061C06FF062C070F063C071F05DEC0CF0FE
:101720006EC08BF06FC08CF070C08DF071C08EF009
:10173000D2C072F0D3C073F0D4C074F0D5C075F0CD
:10174000E9C060F0EAC061F00001000E61BFFF0E69
:10175000626F636F010E37EC15F060C06EF061C010
:101760006FF062C070F063C071F05DEC0CF06EC0A1
:1017700087F06FC088F070C089F071C08AF0B0EC5B
:101780000FF087C0C4F088C0C5F089C0C6F08AC019
:10179000C7F0DAC072F0DBC073F0DCC074F0DDC0FB
:1017A00075F0E0C060F0E1C061F00001000E61BFC3
:1017B000FF0E626F636F010E37EC15F060C06EF0C4
:1017C00061C06FF062C070F063C071F05DEC0CF04E
:1017D0006EC08BF06FC08CF070C08DF071C08EF059
:1017E000C4C087F0C5C088F0C6C089F0C7C08AF001
:1017F000B0EC0FF087C0C8F088C0C9F089C0CAF04B
:101800008AC0CBF0000E00018B6F000E8C6FA00E13
:101810008D6F410E8E6FC0C087F0C1C088F0C2C00E
:1018200089F0C3C08AF0B0EC0FF087C097F088C091
:1018300098F089C099F08AC09AF0DCEC17F097C054
:10184000A1F098C0A2F0000E00018B6F000E8C6F0B
:10185000200E8D6FC10E8E6FC8C087F0C9C088F092
:10186000CAC089F0CBC08AF0B0EC0FF087C097F007
:1018700088C098F089C099F08AC09AF0DCEC17F023
:1018800097C0A3F098C0A4F09AEC1DF091EC1DF065
:101890000001CC51605DA56FCD516159A66FCE514D
:1018A0006259A76FCF516359A86FA851A711A6110C
:1018B00003E1C90EA55D4AD601D600017151800B26
:1018C0007A6F71517125806F70BF80818051D8B45B
:1018D0000DD08029D8A408D0000E6E6F000E6F6F57
:1018E000000E706F000E716F708F08D0000E6E6F5B
:1018F000000E6F6F000E706F000E716F7551800BD0
:101900007A1B755175257F6F74BF7F817F51D8B465
:101910000DD07F29D8A408D0000E726F000E736F0F
:10192000000E746F000E756F748F08D0000E726F0A
:10193000000E736F000E746F000E756F7F51D8B478
:1019400003D08051D8A409D0000E6E6F000E6F6FC7
:10195000000E706F000E716F120074516E03F3CFA2
:1019600085F0F4CF86F085517B6F7C6B7D6B7E6B51
:101970008651816F826B836B846B73516F03F3CFDE
:1019800085F0F4CF86F085517B27000E7C237D23E4
:101990007E2386518127000E822383238423725164
:1019A0007003F3CF85F0F4CF86F085517B27000ECE
:1019B0007C237D237E2386518127000E822383236F
:1019C00084237DC07EF07CC07DF07BC07CF07B6B8F
:1019D00072516F03F3CF85F0F4CF86F085517B27EA
:1019E00086517C23000E7D23000E7E2373516E03EF
:1019F000F3CF85F0F4CF86F085517B2786517C2389
:101A0000000E7D23000E7E237DC07EF07CC07DF025
:101A10007BC07CF07B6B72516E03F3CF85F0F4CF0B
:101A200086F085517B2786517C23000E7D23000E96
:101A30007E2374516F03F3CF85F0F4CF86F0855188
:101A4000812786518223000E8323000E8423735145
:101A50007003F3CF85F0F4CF86F08551812786514E
:101A60008223000E8323000E842374517003F3CF6E
:101A700085F0F4CF86F08551766F8651776F786B5D
:101A8000796B78C079F077C078F076C077F0766BB4
:101A9000765181277751822378518323795184238A
:101AA0007BC076F07CC077F07DC078F07EC079F0A6
:101AB000190E05D0D8907933783377337633E82E02
:101AC000F9D7765181277751822378518323795131
:101AD00084237DC07EF07CC07DF07BC07CF07B6B7E
:101AE0007F5180C076F0776B7627000E7723820EC9
:101AF0007625856FFF0E7721866F0FD0D8908137BE
:101B00008237833784377EBF8181D8907B377C379B
:101B10007D377E378507D8A0860783AFEFD7000EC5
:101B20007F6F7EAF17D0FF0E7B15766FFF0E7C1593
:101B3000776FFF0E7D15786F7F0E7E15796F76516A
:101B4000771178117911D8B403D0010E7F6F02D0CC
:101B500081B1FBD77F51D8B41FD0010E8127000E71
:101B600082238323842384A117D081C076F082C08E
:101B700077F083C078F084C079F0793579337833A1
:101B80007733763376C081F077C082F078C083F007
:101B900079C084F0854B862B86BF0DD0865103E13A
:101BA0008529D8A008D0000E816F000E826F800EAC
:101BB000836F7F0E20D086BF05D086510EE185054C
:101BC000D8B00BD0000E816F000E826F000E836FB5
:101BD000000E846F000E7A6F0FD085C080F0FF0E6C
:101BE0008117FF0E82177F0E8317000E841780B1B6
:101BF000838FD8908031846F7A51841381C06EF0C6
:101C000082C06FF083C070F084C071F01200125077
:101C1000800B1B6E12501224216E11BE21802150A8
:101C2000D8B40DD02128D8A408D0000E0F6E000E15
:101C3000106E000E116E000E126E118E08D0000E86
:101C40000F6E000E106E000E116E000E126E16500A
:101C5000800B1B1A16501624206E15BE20802050B3
:101C6000D8B40DD02028D8A408D0000E136E000ED2
:101C7000146E000E156E000E166E158E08D0000E36
:101C8000136E000E146E000E156E000E166E2050B0
:101C9000D8B403D02150D8A409D0000E0F6E000E86
:101CA000106E000E116E000E126E120015500F0213
:101CB000F3CF26F0F4CF27F026501C6E1D6A1E6A63
:101CC0001F6A2750226E236A246A256A1450100264
:101CD000F3CF26F0F4CF27F026501C26000E1D224D
:101CE0001E221F2227502226000E232224222522D4
:101CF00013501102F3CF26F0F4CF27F026501C2604
:101D0000000E1D221E221F2227502226000E2322F3
:101D1000242225221EC01FF01DC01EF01CC01DF075
:101D20001C6A13501002F3CF26F0F4CF27F0265090
:101D30001C2627501D22000E1E22000E1F221450AA
:101D40000F02F3CF26F0F4CF27F026501C262750A1
:101D50001D22000E1E22000E1F221EC01FF01DC0DD
:101D60001EF01CC01DF01C6A13500F02F3CF26F0AA
:101D7000F4CF27F026501C2627501D22000E1E22CD
:101D8000000E1F2215501002F3CF26F0F4CF27F0DB
:101D90002650222627502322000E2422000E252220
:101DA00014501102F3CF26F0F4CF27F0265022264C
:101DB00027502322000E2422000E25221550110246
:101DC000F3CF26F0F4CF27F02650176E2750186E69
:101DD000196A1A6A19C01AF018C019F017C018F059
:101DE000176A1750222618502322195024221A50FD
:101DF00025221CC017F01DC018F01EC019F01FC00E
:101E00001AF0190E05D0D8901A321932183217323A
:101E1000E82EF9D7175022261850232219502422D1
:101E20001A5025221EC01FF01DC01EF01CC01DF040
:101E30001C6A205021C017F0186A1726000E1822BD
:101E4000820E1724266EFF0E1820276E0FD0D89012
:101E500022362336243625361FBE2280D8901C36E3
:101E60001D361E361F362606D8A0270624AEEFD70D
:101E7000000E206E1FAE17D0FF0E1C14176EFF0E43
:101E80001D14186EFF0E1E14196E7F0E1F141A6E8D
:101E90001750181019101A10D8B403D0010E206E64
:101EA00002D022B0FBD72050D8B41FD0010E22267A
:101EB000000E23222422252225A017D022C017F0AD
:101EC00023C018F024C019F025C01AF01A341A32B1
:101ED00019321832173217C022F018C023F019C077
:101EE00024F01AC025F0264A272A27BE0DD02750F5
:101EF00003E12628D8A008D0000E226E000E236E23
:101F0000800E246E7F0E20D027BE05D027500EE114
:101F10002604D8B00BD0000E226E000E236E000EE9
:101F2000246E000E256E000E1B6E0FD026C021F011
:101F3000FF0E2216FF0E23167F0E2416000E251606
:101F400021B0248ED8902130256E1B50251222C03E
:101F50000FF023C010F024C011F025C012F01200C1
:101F600000018A51800B936F8A518A25956F89BF32
:101F700095819551D8B40DD09529D8A408D0000EDC
:101F8000876F000E886F000E896F000E8A6F898F31
:101F900006D0000E876F000E886F000E896F000E4E
:101FA0008A6F8E51800B946F93519419D8A4938D9E
:101FB0008E518E25946F8DBF94819451D8B40DD0DD
:101FC0009429D8A408D0000E8B6F000E8C6F000EE1
:101FD0008D6F000E8E6F8D8F06D0000E8B6F000EF2
:101FE0008C6F000E8D6F000E8E6F9551945DD8B082
:101FF00022D093AD02D0800E931B95C096F094C072
:1020000095F096C094F087C096F08BC087F096C08C
:102010008BF088C096F08CC088F096C08CF089C098
:1020200096F08DC089F096C08DF08AC096F08EC073
:102030008AF096C08EF0000E966F955194C08FF086
:10204000906B8F5F000E905B90BF2CD0905104E19D
:102050001A0E8F5DD8A026D08751881189118A1158
:10206000D8B402D0010E01D0000E966F000E876F1B
:10207000000E886F000E896F000E8A6F94C095F075
:1020800015D096A105D0D89096310109966F02D04F
:10209000D890963387B1968F8A358A3389338833BF
:1020A0008733952B9451955DD8A0EBD793BD28D05D
:1020B0009551D8A409D0000E876F000E886F000ECE
:1020C000896F000E8A6F12008B5187278C518823ED
:1020D0008D5189238E518A238AA171D096A105D072
:1020E000D89096310109966F02D0D890963387B177
:1020F000968F8A358A33893388338733952B5FD01F
:102100008B51875D8C5188598D5189598A51800A2C
:102110008F6F8E51800A8F59D8B025D087518B5D33
:102120008F6F88518C59906F89518D59916F8A5159
:102130008E59926FFF0E8F25876FFF0E9021886F4B
:10214000FF0E9121896FFF0E92218A6F800E931BE3
:10215000966D9651D8A40FD0010E8727000E8823C4
:1021600089238A2308D08B51875F8C51885B8D51DE
:10217000895B8E518A5B8751881189118A11D8A495
:102180001CD09651D8A419D0000E876F000E886F0E
:10219000000E896F000E8A6F1200D890873788373B
:1021A00089378A3796BF878196A102D0D88001D01F
:1021B000D89096379551D8A4950789AFEED7000EE1
:1021C000946F96AF0BD096C08FF07F0E8F17D8B458
:1021D00003D0010E946F02D087B1FBD79451D8B4CD
:1021E00020D0010E8727000E882389238A238AA105
:1021F00018D087C08FF088C090F089C091F08AC055
:1022000092F092359233913390338F338FC087F0B1
:1022100090C088F091C089F092C08AF09529D8A426
:10222000952B9529D8B403D09551D8A40DD0000E84
:10223000876F000E886F000E896F000E8A6F9551B0
:10224000D8A402D0000E936F95A102D0898F01D03F
:10225000899FD89095318A6F93BF8A8F87C087F006
:1022600088C088F089C089F08AC08AF012002B509B
:10227000800B346E2B502B24366E2ABE368036509F
:10228000D8B40DD03628D8A408D0000E286E000E81
:10229000296E000E2A6E000E2B6E2A8E06D0000EBE
:1022A000286E000E296E000E2A6E000E2B6E2F5027
:1022B000800B356E34503518D8A4348C2F502F2411
:1022C000356E2EBE35803550D8B40DD03528D8A403
:1022D00008D0000E2C6E000E2D6E000E2E6E000E1D
:1022E0002F6E2E8E06D0000E2C6E000E2D6E000E60
:1022F0002E6E000E2F6E3650355CD8B022D034AC26
:1023000002D0800E341A36C037F035C036F037C0F0
:1023100035F028C037F02CC028F037C02CF029C089
:1023200037F02DC029F037C02DF02AC037F02EC06D
:102330002AF037C02EF02BC037F02FC02BF037C05B
:102340002FF0000E376E365035C030F0316A305EF7
:10235000000E315A31BE2CD0315004E11A0E305CDF
:10236000D8A026D0285029102A102B10D8B402D07B
:10237000010E01D0000E376E000E286E000E296E81
:10238000000E2A6E000E2B6E35C036F015D037A029
:1023900005D0D89037300109376E02D0D890373247
:1023A00028B0378E2B342B322A3229322832362A63
:1023B0003550365CD8A0EBD734BC28D03650D8A4E2
:1023C00009D0000E286E000E296E000E2A6E000E37
:1023D0002B6E12002C5028262D5029222E502A22F6
:1023E0002F502B222BA071D037A005D0D89037309A
:1023F0000109376E02D0D890373228B0378E2B348F
:102400002B322A3229322832362A5FD02C50285CCF
:102410002D5029582E502A582B50800A306E2F509C
:10242000800A3058D8B025D028502C5C306E295006
:102430002D58316E2A502E58326E2B502F58336E35
:10244000FF0E3024286EFF0E3120296EFF0E322041
:102450002A6EFF0E33202B6E800E341A376C3750E5
:10246000D8A40FD0010E2826000E29222A222B22C2
:1024700008D02C50285E2D50295A2E502A5A2F5001
:102480002B5A285029102A102B10D8A41CD03750B2
:10249000D8A419D0000E286E000E296E000E2A6EE8
:1024A000000E2B6E1200D890283629362A362B368D
:1024B00037BE288037A002D0D88001D0D8903736D8
:1024C0003650D8A436062AAEEED7000E356E37AE9B
:1024D0000BD037C030F07F0E3016D8B403D0010EC9
:1024E000356E02D028B0FBD73550D8B420D0010EBD
:1024F0002826000E29222A222B222BA018D028C001
:1025000030F029C031F02AC032F02BC033F0333420
:10251000333232323132303230C028F031C029F01B
:1025200032C02AF033C02BF03628D8A4362A3628F9
:10253000D8B403D03650D8A40DD0000E286E000EAB
:10254000296E000E2A6E000E2B6E3650D8A402D0D3
:10255000000E346E36A002D02A8E01D02A9ED8906A
:1025600036302B6E34BE2B8E28C028F029C029F0BF
:102570002AC02AF02BC02BF0120001013E51365D1B
:10258000326F3F513759336F9A0E136E990E146E96
:10259000A10E156E410E166E32C101F033C102F06C
:1025A000000E02BEFF0E036E046E010ED9EC15F094
:1025B00001C00FF002C010F003C011F004C012F00F
:1025C00007EC0EF00FC02CF010C02DF011C02EF053
:1025D00012C02FF086C101F087C102F0000E02BECA
:1025E000FF0E036E046E010ED9EC15F001C028F049
:1025F00002C029F003C02AF004C02BF037EC11F020
:1026000028C042F029C043F02AC044F02BC045F056
:10261000660E136E660E146E9E0E156EC10E166E4D
:1026200030C101F031C102F0000E02BEFF0E036E98
:10263000046E010ED9EC15F001C00FF002C010F0CD
:1026400003C011F004C012F007EC0EF00FC02CF024
:1026500010C02DF011C02EF012C02FF042C028F093
:1026600043C029F044C02AF045C02BF037EC11F0EC
:1026700028C038F029C039F02AC03AF02BC03BF00E
:102680003AEC18F038C04EF039C04FF032C130F19A
:1026900033C131F14FBE0AD0210E4E5C030E4F58AC
:1026A000D8A004D0030E4F6E200E05D04FAE04D03C
:1026B000000E4F6E000E4E6E4EC086F14FC087F179
:1026C00001013C51345D2E6F3D5135592F6F9A0EEB
:1026D000136E990E146EA10E156E410E166E2EC15C
:1026E00001F02FC102F0000E02BEFF0E036E046E59
:1026F000010ED9EC15F001C00FF002C010F003C0BC
:1027000011F004C012F007EC0EF00FC02CF010C056
:102710002DF011C02EF012C02FF084C101F085C140
:1027200002F0000E02BEFF0E036E046E010ED9EC25
:1027300015F001C028F002C029F003C02AF004C03F
:102740002BF037EC11F028C042F029C043F02AC02A
:1027500044F02BC045F0660E136E660E146E9E0E8E
:10276000156EC10E166E2CC101F02DC102F0000EC7
:1027700002BEFF0E036E046E010ED9EC15F001C00F
:102780000FF002C010F003C011F004C012F007EC0B
:102790000EF00FC02CF010C02DF011C02EF012C0A2
:1027A0002FF042C028F043C029F044C02AF045C0B1
:1027B0002BF037EC11F028C038F029C039F02AC0CE
:1027C0003AF02BC03BF03AEC18F038C04CF039C06E
:1027D0004DF02EC12CF12FC12DF14DBE0AD0210E8E
:1027E0004C5C030E4D58D8A004D0030E4D6E200E45
:1027F00005D04DAE04D0000E4D6E000E4C6E4CC098
:1028000084F14DC085F14EC001F04FC002F077EC6D
:102810001CF04CC001F04DC002F088EC1CF012001E
:102820000E01CD9196AEF9D0969E000E586E000125
:1028300020EE03F0F851D926F951DA22DECF04F068
:10284000DDCF05F004C0D9FF05C0DAFF010EDF6E51
:10285000000EF86F000EF96F12000001EFB31200C6
:10286000EDC0F8F0EEC0F9F0EDC0D9FFEEC0DAFF30
:10287000DF50576E20EE01F0ED51D926EE51DA22ED
:10288000DECFFAF0DDCFFBF0050EED27000EEE23D4
:102890004F0EED1908E1010EEE19D8A404D04A0E2E
:1028A000ED6F010EEE6FEF91EB51ED1904E1EC517C
:1028B000EE19D8B4EF839780020E586E120097ACD1
:1028C00006D00001F12B040EF9EC1AF01200D8909A
:1028D0005A30056E5930046E0450926E59A003D0E0
:1028E0000B0E586E1200030E586E120097AC06D0F5
:1028F0000001F12B040EF9EC1AF01200978259C076
:1029000004F05AC005F005C004F0056A060E04166E
:10291000000E0516F00E0410596E05505A6E5980BF
:10292000010E556EC9D75504D8B41BD0FAC0D9FFD3
:10293000FBC0DAFFDECF59F0DDCF5AF0000120EE08
:1029400003F0FA51D926FB51DA22DECF38F1DDCF80
:1029500039F120EE02F0FA51D926FB51DA22DF508C
:10296000566E59C092FF59A0BED7050E586E120080
:1029700097AC07D00001F12B979C050EF9EC1AF0EB
:10298000120056065628D8A40DD0050E0001FA27CD
:10299000000EFB23572E04D0000EF9EC1AF01200A3
:1029A00097828AD738C1D9FF39C1DAFFDF50926EDA
:1029B0000101384B392B120097AC07D00001F12BE5
:1029C000040EF9EC1AF0979C12009786080E586EC8
:1029D0001200080E586E9786120038C1D9FF39C10F
:1029E000DAFF92CFDFFF0101384B392B010E565E23
:1029F000D8B404D0979A060E586E03D0978A2FEC5D
:102A00001DF097881200000EF9EC1AF01200000178
:102A1000F12B060EF9EC1AF012005850046E056AFC
:102A20000550000AD8A4F3D70450000AD8B415D72B
:102A3000010AD8B4B5D7030AD8B475D7010AD8B4F7
:102A400097D7070AD8B4DFD7010AD8B4B5D7030A95
:102A5000D8B4BFD7010AD8B4D6D70F0AD8B4BDD7D7
:102A6000020AD8B42CD7010AD8B440D7D0D7000175
:102A7000686F00016851D8A463AF1AD060C064F0D9
:102A800061C065F062C066F063C067F0641F651FD7
:102A9000661F671F642B000E65236623672364C0CF
:102AA0006AF065C06BF066C06CF067C06DF008D06E
:102AB00060C06AF061C06BF062C06CF063C06DF022
:102AC0006051611162116311D8A409D0000E606FCA
:102AD000000E616F000E626F000E636F1200960EA3
:102AE000696F06D0692BD8906D336C336B336A33C2
:102AF000000E6A15646F000E6B15656F000E6C1585
:102B0000666FFE0E6D15676F645165116611671172
:102B1000D8B40DD0E7D7692B010E6A27000E6B23BE
:102B20006C236D23D8906D336C336B336A33000E96
:102B30006A15646F000E6B15656F000E6C15666F7D
:102B4000FF0E6D15676F6451651166116711D8B47A
:102B500007D0E1D76907D8906A376B376C376D3784
:102B60006CBF03D0020E6961F5D769A16C9FD89044
:102B7000693369C064F0656B666B676B64C067F04E
:102B8000666B656B646B64516A1365516B136651B8
:102B90006C1367516D136851D8A463AF01D06D8F6A
:102BA0006AC060F06BC061F06CC062F06DC063F031
:102BB0001200096E0950D8A404AE1AD001C005F065
:102BC00002C006F003C007F004C008F0051E061E90
:102BD000071E081E052A000E06220722082205C02D
:102BE0000BF006C00CF007C00DF008C00EF008D0C6
:102BF00001C00BF002C00CF003C00DF004C00EF0D9
:102C00000150021003100410D8A409D0000E016E68
:102C1000000E026E000E036E000E046E1200960E81
:102C20000A6E06D00A2AD8900E320D320C320B32C0
:102C3000000E0B14056E000E0C14066E000E0D1423
:102C4000076EFE0E0E14086E0550061007100810D1
:102C5000D8B40DD0E7D70A2A010E0B26000E0C229D
:102C60000D220E22D8900E320D320C320B32000E95
:102C70000B14056E000E0C14066E000E0D14076E7C
:102C8000FF0E0E14086E0550061007100810D8B479
:102C900007D0E1D70A06D8900B360C360D360E3623
:102CA0000DBE03D0020E0A60F5D70AA00D9ED89083
:102CB0000A320AC005F0066A076A086A05C008F009
:102CC000076A066A056A05500B1206500C12075077
:102CD0000D1208500E120950D8A404AE01D00E8E69
:102CE0000BC001F00CC002F00DC003F00EC004F0E8
:102CF0001200000E876E000E866E000E836E000EB0
:102D0000846E000E856E020E8C6EE00E886EC70E0D
:102D1000896E990E8A6EE30E8B6E1C0E0F01266F64
:102D2000660E216FF80E196F050E2E6F1F0E116FB4
:102D3000060E256F000E2D6F000E186FC00E106F5F
:102D4000000E206F000E2C6F000E0F6F000E176F1D
:102D5000000E1F6F000E246F0E6916691E6923692D
:102D6000070E2B6F0D6915691D6922690F0E2A6FF9
:102D70000A9B0A9D0A9F0B8B0B8D0B8F0C9B0C8D56
:102D80000C9F1A911B811C91F40E0001606F330E91
:102D9000616F000E626FD4EC1DF0240E0001606FB5
:102DA000350E616F000E626FCDEC1DF0220E00013A
:102DB000606F3C0E616F000E626FC6EC1DF0A40EDA
:102DC0000001606F330E616F000E626FBFEC1DF08B
:102DD0000E01C289130EB76F170EB56F0F0EFA6F83
:102DE000060EF86F100EFB6F050EF96F090EFD6FE2
:102DF000140EB86F120083908392040E0001666F68
:102E0000400E656F260EE82EFED7652FFCD7662F85
:102E1000FAD700F0030E33EC19F0680E0001656F6D
:102E2000E40EE82EFED7652FFCD700F0030E33EC3E
:102E300019F0680E0001656FE40EE82EFED7652FCD
:102E4000FCD700F0030E33EC19F0680E0001656F3B
:102E5000E40EE82EFED7652FFCD700F0020E33EC0F
:102E600019F0680E0001656FE40EE82EFED7652F9D
:102E7000FCD700F0000E0001626F280E36EC1BF04C
:102E8000680E0001656FE40EE82EFED7652FFCD7B3
:102E900000F0000E0001626F0C0E36EC1BF0A70E66
:102EA0000001656F3A0EE82EFED7652FFCD700F0C3
:102EB000AAEC1CF0680E0001656FE40EE82EFED748
:102EC000652FFCD700F0000E0001626F060E36EC95
:102ED0001BF0680E0001656FE40EE82EFED7652F2B
:102EE000FCD700F0AAEC1CF083801200000E126EDA
:102EF00010AE0AD0101E0F1E0E1E0D6C000E0E22FC
:102F00000F221022010E126E0CAE0AD00C1E0B1EE8
:102F10000A1E096C000E0A220B220C22010E121A44
:102F2000000E136E000E146E000E156E000E166E5F
:102F30000D500E100F101010D8B42AD0010E116EC3
:102F400006D0D8900D360E360F361036112A10AE38
:102F5000F8D7D89013361436153616360D50095C4E
:102F60000E500A580F500B5810500C58D8A009D0CA
:102F70000D50095E0E500A5A0F500B5A10500C5A41
:102F80001380D89010320F320E320D32112EE1D74D
:102F90001250D8B408D0161E151E141E136C000E45
:102FA00014221522162213C009F014C00AF015C00D
:102FB0000BF016C00CF01200000199359A35A06F85
:102FC000A051D8A409D0000E976F000E986F000E84
:102FD000996F000E9A6F120097C09BF098C09CF0FA
:102FE00099C09DF09AC09EF0200E05D0D8909E33D7
:102FF0009D339C339B33E82EF9D79B519F6F998F5C
:10300000FF0E9717FF0E9817FF0E9917000E9A17CD
:10301000960EA05FA0AF0DD0A051800A970FD8A048
:10302000D2D7D8909A33993398339733A03FF9D7B2
:103030000DD01F0EA06507D0C6D7D8909737983708
:1030400099379A37A007A051D8A4F7D79F51D8B481
:1030500008D09A1F991F981F976D000E98239923E7
:103060009A2397C097F098C098F099C099F09AC0A9
:103070009AF012003A343B34416E4150D8A409D042
:10308000000E386E000E396E000E3A6E000E3B6E6A
:10309000120038C03CF039C03DF03AC03EF03BC0B1
:1030A0003FF0200E05D0D8903F323E323D323C32C8
:1030B000E82EF9D73C50406E3A8EFF0E3816FF0EC0
:1030C0003916FF0E3A16000E3B16960E415E41AEC3
:1030D0000DD04150800A970FD8A0D2D7D8903B325C
:1030E0003A3239323832413EF9D70DD01F0E4164A1
:1030F00007D0C6D7D890383639363A363B364106EF
:103100004150D8A4F7D74050D8B408D03B1E3A1E3F
:10311000391E386C000E39223A223B2238C038F072
:1031200039C039F03AC03AF03BC03BF01200000E13
:103130000001FC25D96EDA6A010EDA22DF6A9DA44D
:1031400014D0000EFC25D96EDA6A010EDA220101D4
:10315000DF8201D80AD00500FA6E5E51FD6E5F5124
:10316000FE6E6051FF6EFA5012009DA215D0000E47
:103170000001FC25D96EDA6A010EDA220101DF8432
:1031800001D80AD00500FA6E5B51FD6E5C51FE6EEF
:103190005D51FF6EFA501200000E0001FC25D96E41
:1031A000DA6A010EDA22DF50D8B40DD001D812004D
:1031B0000500FA6E01015851FD6E5951FE6E5A51CB
:1031C000FF6EFA50120099EC1CF012000E01C59B24
:1031D0002E0E0001606F310E616F000E626FE2EC27
:1031E0001DF00E01C599A40E0001606F370E616FCE
:1031F000000E626FDBEC1DF0080E9F6E900E9D6E50
:10320000240E9E6E8A0E9B6E000E9C6E240E000194
:10321000606F3C0E616F000E626FF0EC1DF0020EED
:103220000001606F3C0E616F000E626FE9EC1DF0F3
:10323000080E0001606F3C0E616F000E626FF7ECCC
:103240001DF0000E526E000E0001FF6F000EFE6FAB
:10325000080EFD6F000EFC6F000E546E000E536ED4
:103260000E01C58B12000001616F000161A103D046
:10327000606B602B02D00001606B60476047835039
:103280006019FB0B6019836E61A303D0606B602B28
:1032900002D00001606B604760476047835060194F
:1032A000F70B6019836E61A503D0606B602B02D0B1
:1032B0000001606B603B83506019EF0B6019836EF7
:1032C00061A703D0606B602B02D00001606B875058
:1032D0006019FE0B6019876E8382E40E00D000D067
:1032E000E82EFCD700D000D08392E40E00D000D0AE
:1032F000E82EFCD700D000D01200900EF66E3A0EE9
:10330000F76E000EF86E01EE76F010EE16F0090082
:10331000F5CFEEFFE550E150FAE102EE00F0750E58
:10332000EE6AE806FDE101EE00F04F0EEE6AE806F7
:10333000FDE100EEEBF0150EEE6AE806FDE100EEB1
:103340004CF00F0EEE6AE806FDE15B905B92000127
:1033500085EF07F00001626F12D08EA002D0010E3F
:103360001200000E12008EA202D0010E1200000EFA
:1033700012008EA402D0010E1200000E12000001F5
:103380006251606F616B6151000AD8A412006051F4
:10339000000AD8B4E2D7010AD8B4E5D7030AD8A402
:1033A0001200E7D709EC1EF0D80E096E530E0A6E14
:1033B000010E0B6E000E0C6EBAEC1CF001C00DF08D
:1033C00002C00EF00F6A106A76EC17F009C03CF1EB
:1033D0000AC03DF190A005D001013C6D3D1FD8B061
:1033E0003D2B000E026E000E016E13EC1DF00BEC77
:1033F0001EF012000DEC1EF0D80E096E530E0A6E70
:10340000010E0B6E000E0C6ECAEC1CF001C00DF02C
:1034100002C00EF00F6A106A76EC17F009C03EF198
:103420000AC03FF191B205D001013E6D3F1FD8B0F7
:103430003F2B000E026E000E016E21EC1DF00FEC12
:103440001EF01200000E6A6E000E6B6E000E6C6EA7
:10345000000E6D6E000E686E000E696E000E666ED8
:10346000000E0F015F6F000E5D6F000E596F000EB2
:103470005A6F000E5B6F000E656E000E586F000EE7
:10348000566F330E576F840E606E000E5C6F120025
:10349000000ECA6E000ECB6E010ECC6E000EC86E12
:1034A000000EC76EC750C8CF63F00001646B63C0E5
:1034B00064F0636B6311F26F6451F36F0E01CE958C
:1034C000C685EE0E0001606F390E616F000E626FEF
:1034D000AAEC1DF0300EC96E1200000ED06E000E68
:1034E000D16E010ED26E000ECE6E000ECD6ECD509E
:1034F000CECF63F00001646B63C064F0636B631153
:10350000F46F6451F56F0E01CE91C6810A0E000171
:10351000606F3A0E616F000E626FB1EC1DF0300EFD
:10352000CF6E12003F0E016E550EE82EFED7012E13
:10353000FCD700F08DBC0BD090A204D001013A4B17
:103540003B2B08D001013A07D8A03B0703D090B22B
:10355000F9D7F4D7070E026E170E016E6A0EE82E29
:10356000FED7012EFCD7022EFAD700D01200400E53
:10357000D66EC10ED46E800ED36ED350D4CF63F00E
:103580000001646B63C064F0636B6311F66F645198
:10359000F76F0E01CA9BC28B0E0E0001606F3B0ECF
:1035A000616F000E626FB8EC1DF0900ED56E1200C8
:1035B0000001636F0ED06051D8B402D0868812002B
:1035C000869812006051D8B402D086841200869486
:1035D000120000016351616F626B6251000AD8A44E
:1035E00012006151000AD8B4E6D7010AD8A412002B
:1035F000E9D7036E9784000120EE03F0F851D92635
:10360000F951DA22DE50DE10D8B410D020EE03F0EB
:10361000F851D926F951DA22DECF01F0DDCF02F0E0
:1036200001C0D9FF02C0DAFF03C0DFFF000E586EF1
:10363000120007EC1EF0E9EC1CF079EC16F03CEC03
:103640001DF051EC1BF053EC1DF022EC1AF0A0EC35
:103650001BF0DAEC1CF0B7EC1AF05EEC1DF048EC55
:103660001AF06DEC1AF0E6EC18F012000001636F2E
:1036700000016251D8A402D0839001D08380E40E6F
:1036800000D000D0E82EFCD700D000D00001633974
:103690000F0B33EC19F0000163510F0B33EC19F0F1
:1036A00012004A0E0001ED6F010EEE6F4A0EEB6F35
:1036B000010EEC6FEF83EF91000EF16F000E956E2F
:1036C000280E966E000E986E270E936E0E01CD9109
:1036D000CD93C581C58312000E01CE95F2C001F0D5
:1036E000F3C002F013EC1DF001014F5150115111C4
:1036F000D8B4120001D812000500FA6E4F51FD6EC9
:103700005051FE6E5151FF6EFA5012000E01CE91D3
:10371000F4C001F0F5C002F021EC1DF0010152519E
:1037200053115411D8B4120001D812000500FA6EDA
:103730005251FD6E5351FE6E5451FF6EFA501200FD
:10374000040EB96E000EB86E000EBA6E4D0EB66E57
:10375000000EB56E0E01CE97C6877A0E0001606F1F
:10376000250E616F000E626FA3EC1DF0A00EB76E08
:1037700012000E01CA9B0001F751D46EF6C0D3FFB0
:103780000101615162116311D8B4120001D8120015
:103790000500FA6E6151FD6E6251FE6E6351FF6E5F
:1037A000FA501200080E0001FD6110D0100EFE2527
:1037B000D96EDA6A010EDA22DF509A6EFE2B070EFE
:1037C000FE6502D0000EFE6FFD2B12000E01C599A2
:1037D00012000101645165116611D8B40CD001D8F2
:1037E0000AD00500FA6E6451FD6E6551FE6E665199
:1037F000FF6EFA5012000F011A9112000101675179
:1038000068116911D8B40CD001D80AD00500FA6E3D
:103810006751FD6E6851FE6E6951FF6EFA501200DD
:103820000F010A9F120001016A516B116C11D8B48B
:103830000CD001D80AD00500FA6E6A51FD6E6B51AA
:10384000FE6E6C51FF6EFA5012000F010A9D1200BD
:1038500001016D516E116F11D8B40CD001D80AD08E
:103860000500FA6E6D51FD6E6E51FE6E6F51FF6E6A
:10387000FA5012000F010A9B12000001646F64C02D
:103880005FFF608E609C608060B0FED76450000176
:10389000636F626B63506225606F000E6321616F1E
:1038A00012000E01CE970101555156115711D8B48F
:1038B000120001D812000500FA6E5551FD6E5651E6
:1038C000FE6E5751FF6EFA5012000F010ABB28EC32
:1038D0001CF00F010ABD13EC1CF00F010ABFFEEC37
:1038E0001BF00F011AA11200E9EC1BF01200FF0EF1
:1038F0000116030E0216A8A806D0060ED8900136AF
:103900000236E82EFBD70250A76E01C0A6FF1200B8
:10391000FF0E0116030E0216ACA806D0060ED890B4
:1039200001360236E82EFBD70250AB6E01C0AAFF6B
:103930001200080E0001FC25D96EDA6A010EDA22A7
:1039400099CFDFFFFC2B070EFC6502D0000EFC6F49
:10395000532A1200000E0001626F010E36EC1BF0BC
:103960002A0E0001646F8D0EE82EFED7642FFCD75F
:1039700000D01200C982C7CF08F0C8CF07F00750A7
:10398000036E0850056E03C006F005C001F006C0C6
:1039900002F01200CF82CDCF08F0CECF07F0075053
:1039A000036E0850056E03C006F005C001F006C0A6
:1039B00002F01200010EBF6E000EBE6E000EC06E51
:1039C000C70EBC6E000EBB6E0E01CE93A00EBD6E78
:1039D0001200000E0E01E16F000EE26F000EE36FA9
:1039E000000EE46F000EE56F000EE66F120009ECAA
:1039F0001EF0000E01013D6F000E3C6F000E026EC6
:103A0000000E016E13EC1DF012000DEC1EF0000E06
:103A100001013F6F000E3E6F000E026E000E016E40
:103A200021EC1DF01200C9A407D0C9900250C86E45
:103A300001C0C7FFC98012000250C86E01C0C7FF95
:103A40001200CFA407D0CF900250CE6E01C0CDFFA0
:103A5000CF8012000250CE6E01C0CDFF1200050EC5
:103A60000001FA27000EFB23572E03D0040E586ED8
:103A70001200010E586E1200600E0E01D86F000E7B
:103A8000DA6F000EDC6F080EDE6F000EDD6F1200C5
:103A90000401010102040202020103292A2B900100
:103AA0009001900190018C0EA86E010EA76E8F0EF2
:103AB000A66EAE50F30B0409AE6E12008C0EAC6E07
:103AC000010EAB6E8F0EAA6EAE50FC0B0109AE6EEE
:103AD00012000001606F00016051D8B402D08784E9
:103AE0001200879412000001606F00016051D8B489
:103AF00002D086861200869612000001606F0001D7
:103B00006051D8B402D08488120084981200504AC0
:103B1000512A010E01012827000E29232A232B23D5
:103B2000120028C160F029C161F02AC162F02BC1E6
:103B300063F01200A1C036F1A2C037F1A3C034F186
:103B4000A4C035F1120060C055F161C056F162C0E9
:103B500057F1120060C04FF161C050F162C051F1E5
:103B6000120060C052F161C053F162C054F1120002
:103B700060C061F161C062F162C063F1120060C0B7
:103B800064F161C065F162C066F1120060C067F166
:103B900061C068F162C069F1120060C06AF161C081
:103BA0006BF162C06CF1120060C06DF161C06EF12A
:103BB00062C06FF1120060C073F161C074F162C045
:103BC00075F1120060C070F161C071F162C072F1F4
:103BD000120060C05BF161C05CF162C05DF1120077
:103BE00060C05EF161C05FF162C060F1120060C050
:103BF00058F161C059F162C05AF112000E01CD9323
:103C000012009D989D88120099EC1CF01200F29A07
:103C10001200C9901200C9801200CF901200CF800C
:063C200012001200120068
:020000040020DA
:10000000FF0FFF0FFF0FFF0FFF0FFF0FFF0FFF0F80
:020000040030CA
:0C0000008CFFFFFF9FFFFFDFFFFFFFFFF3
:00000001FF
